:060000000A128A110C280F
:10000800FE00030EF0000A08F1000A168A11D82D26
:100018000A128A110F288313C230FD001530FE0022
:100028003A30FF00A03084000A168A11DC240A1234
:100038008A117030FD000730FE00FB30FF006C3085
:1000480084000A168A11DC240A128A110A128A11FB
:10005800FF270A128A11FB0083160313C201C3018A
:10006800C401C50183120313DE01DF01E001E101D0
:10007800E201E301E401E501E601E701E801E90144
:10008800EA01EB01FA0183010A128A156E2A83122A
:100098000313DA000A168A11D3260A128A1133309A
:1000A800831203136E06031D5A285B281B2A0A169F
:1000B8008A11C7240A128A110A128A156B240A1295
:1000C8008A114D3083120313A0009130A1008030B3
:1000D800A2000A168A11A5250A128A11831203138F
:1000E8006908D4005407A03E840083130008A000C8
:1000F800840A00088403A1008630A2000A168A1127
:10010800A5250A128A11473083120313A0009130E3
:10011800A100C030A2000A168A11A5250A128A1168
:10012800C63083120313A0000A30F2000030F30037
:100138006A08D400D5015408F4005508F5000A16D9
:100148008A1131270A128A117208303E0A168A115A
:10015800EB240A128A11C73083120313A0000A3055
:10016800F2000030F3006A08D400D5015408F40006
:100178005508F5000A168A117C260A128A11720897
:10018800303E0A168A11EB240A128A11C8308312EB
:100198000313A0003A300A168A11EB240A128A11B6
:1001A800C93083120313A0000A30F2000030F300B4
:1001B8006B08D400D5015408F4005508F5000A1658
:1001C8008A1131270A128A117208303E0A168A11DA
:1001D800EB240A128A11CA3083120313A0000A30D2
:1001E800F2000030F3006B08D400D5015408F40085
:1001F8005508F5000A168A117C260A128A11720817
:10020800303E0A168A11EB240A128A11FF30831233
:100218000313EE00333083120313D600BB30D5002E
:10022800DF30D400D40B1629D50B1629D60B162986
:100238000A168A11C7240A128A11DE3083120313A0
:10024800A0009030A1008030A2000A168A11A525CE
:100258000A128A11473083120313A0009130A100BB
:10026800C030A2000A168A11A5250A128A11223066
:1002780083120313A0009030A1009030A2000A1648
:100288008A11A5250A128A11831203136A08D40059
:10029800D5015408F2005508F3003C30F400003052
:1002A800F5000A168A1180250A128A11831203138F
:1002B8006B087207DE000030031801307307DF0097
:1002C8005F08E7005E08E6006608F2006708F300CA
:1002D8000030F31BFF30F400F50001300A128A15D4
:1002E800B8210A128A11750883120313AD00740825
:1002F800AC007308AB007208AA003E30A900EB30CE
:10030800A8008530A7001F30A6000A128A110A2407
:100318000A128A11831203132908C3002808C2008D
:100328002708C1002608C0000A128A15A1200A124F
:100338008A11831203134108E5004008E4006608A7
:10034800F2006708F3000030F31BFF30F400F500FB
:1003580001300A128A15B8210A128A117508831207
:100368000313AD007408AC007308AB007208AA0050
:100378003D30A900F530A800C230A7008F30A60094
:100388000A128A110A240A128A11831203132908ED
:10039800C3002808C2002708C1002608C0000A12A6
:1003A8008A15A1200A128A11831203134108E30057
:1003B8004008E2006608F2006708F3000030F31B0B
:1003C800FF30F400F50001300A128A15B8210A122C
:1003D8008A11750883120313AD007408AC00730802
:1003E800AB007208AA003E30A900D730A8000A3036
:1003F800A7003D30A6000A128A110A240A128A119F
:10040800831203132908C3002808C2002708C10063
:100418002608C0000A128A15A1200A128A1183121E
:1004280003134108E1004008E000121507151F30CA
:100438005A06031D202A212A252A121107114430A1
:10044800EF006A08D400D5015408F2005508F300FB
:100458003C30F4000030F5000A168A1180250A1293
:100468008A11831203136B087207E6000030031821
:1004780001307307E700083069020318442A452A47
:100488009C2A64085E02D4006508031C650A5F02A2
:10049800D50055086702031D532A54086602031C39
:1004A800562A572A632A6A30A0009130A1008A3060
:1004B800A2000A168A11A5250A128A114C2B640972
:1004C800D4006509D500D40A0319D50A6008540276
:1004D800D6006108031C610A5502D7005E0856075A
:1004E800D8005F0803185F0A5707D9005908670240
:1004F800031D802A58086602031C832A842A902A2E
:100508005330A0009130A1008A30A2000A168A1147
:10051800A5250A128A114C2B4130A0009130A10068
:100528008A30A2000A168A11A5250A128A114C2BB4
:1005380008306906031DA12AA22A2F2B6608F2009B
:100548006708F300F401F50100300A128A15B82192
:100558000A128A11750883120313CB007408CA00A3
:100568007308C9007208C8005E08F2005F08F3004B
:10057800F401F50100300A128A15B8210A128A110D
:10058800750883120313C7007408C6007308C500F2
:100598007208C4005E08F2005F08F300F401F50178
:1005A80000300A128A15B8210A128A1175088312B6
:1005B8000313AD007408AC007308AB007208AA00FE
:1005C8003E30A900CC30A800CC30A700CD30A60022
:1005D8000A128A110A240A128A118312031329089B
:1005E800C3002808C2002708C1002608C0000A1650
:1005F8008A115C250A128A11831203134308CF005B
:100608004208CE004108CD004008CC000A128A11E9
:100618004C270A128A11031C122B132B212B53303F
:1006280083120313A0009130A1008A30A2000A1699
:100638008A11A5250A128A114C2B41308312031303
:10064800A0009130A1008A30A2000A168A11A525BF
:100658000A128A114C2B09306906031D342B352BDD
:10066800412B6F30A0009130A1008A30A2000A16F9
:100678008A11A5250A128A114C2B6A30A0009130E4
:10068800A1008030A2000A168A11A5250A128A1133
:10069800C63083120313A0000A30F2000030F300C2
:1006A8006A08D400D5015408F4005508F5000A1664
:1006B8008A1131270A128A117208303E0A168A11E5
:1006C800EB240A128A11C73083120313A0000A30E0
:1006D800F2000030F3006A08D400D5015408F40091
:1006E8005508F5000A168A117C260A128A11720822
:1006F800303E0A168A11EB240A128A11C830831276
:100708000313A0003A300A168A11EB240A128A1140
:10071800C93083120313A0000A30F2000030F3003E
:100728006B08D400D5015408F4005508F5000A16E2
:100738008A1131270A128A117208303E0A168A1164
:10074800EB240A128A11CA3083120313A0000A305C
:10075800F2000030F3006B08D400D5015408F4000F
:100768005508F5000A168A117C260A128A117208A1
:10077800303E0A168A11EB240A128A1183120313D7
:100788006A08031DC82BC92B092C6B08031DCD2B28
:10079800CE2B092C0A168A11C7240A128A11831231
:1007A8000313071187141230A0009030A100803085
:1007B800A2000A168A11A5250A128A11623083122C
:1007C8000313A0009030A100C030A2000A168A11BD
:1007D800A5250A128A11333083120313D600BB30C1
:1007E800D500DF30D400D40BF72BD50BF72BD60B65
:1007F800F72B8312031387100130EF001130EE003E
:100808000A168A11C7240A128A11080083120313D0
:100818002908B3008030B3052908AE002E07B900B7
:10082800A81F172C182C192C3914390803191D2C3A
:100838001E2C2D2C390A031D222C232C2B2C003086
:10084800A9000030A8000030A7000030A600A817B3
:10085800352C0030A9000030A8000030A700003077
:10086800A6002D088039B3062D08AE002E07B80063
:10087800AC1F3F2C402C412C381438080319452C48
:10088800462C552C380A031D4A2C4B2C532C00306F
:10089800AD000030AC000030AB000030AA00AC174F
:1008A8005D2C0030AD000030AC000030AB000030F3
:1008B800AA0038080319612C622C672C3908031D1B
:1008C800662C672C702C0030A9000030A80000307E
:1008D800A7000030A6004B2F2608F2002C080A12A9
:1008E8008A1509200A128A11730883120313BF009C
:1008F8007208BE003E08AE00AF01B001B101310878
:10090800B7003008B6002F08B5002E08B4003F081D
:10091800AE00AF01B001B1013108BD003008BC0024
:100928002F08BB002E08BA002708F2002B080A126D
:100938008A1509200A128A11730883120313BF004B
:100948007208BE003E08AE00AF01B001B1012E082A
:10095800B4072F0803110318013E0319B42CB50777
:10096800300803110318013E0319BB2CB6073108E0
:1009780003110318013E0319C22CB7073F08AE0044
:10098800AF01B001B1012E08BA072F0803110318EF
:10099800013E0319D02CBB07300803110318013E90
:1009A8000319D72CBC07310803110318013E03199A
:1009B800DE2CBD072808F2002A080A128A15092029
:1009C8000A128A11730883120313BF007208BE004B
:1009D8003E08AE00AF01B001B1012E08B4072F08E0
:1009E80003110318013E0319FA2CB5073008031147
:1009F8000318013E0319012DB60731080311031826
:100A0800013E0319082DB7073F08AE00AF01B0013A
:100A1800B1012E08BA072F0803110318013E031964
:100A2800162DBB07300803110318013E03191D2DAD
:100A3800BC07310803110318013E0319242DBD0713
:100A48000830AE000310B40DB50DB60DB70DAE0BE2
:100A5800262D2708F2002A080A128A1509200A12E8
:100A68008A11730883120313BF007208BE003E0880
:100A7800AE003F08AF00B001B1012E08B4072F083F
:100A880003110318013E03194A2DB5073008031155
:100A98000318013E0319512DB60731080311031835
:100AA800013E0319582DB7072608F2002B080A1231
:100AB8008A1509200A128A11730883120313BF00CA
:100AC8007208BE003E08AE003F08AF00B001B10199
:100AD8002E08B4072F0803110318013E0319752DBA
:100AE800B507300803110318013E03197C2DB6071A
:100AF800310803110318013E0319832DB707083085
:100B0800AE000310B40DB50DB60DB70DAE0B852DA7
:100B18002608F2002A080A128A1509200A128A11E0
:100B2800730883120313BF007208BE003E08AE00AC
:100B38003F08AF00B001B1012E08B4072F08031118
:100B48000318013E0319A92DB5073008031103182E
:100B5800013E0319B02DB607310803110318013EF1
:100B68000319B72DB7072708F2002C080A128A15AF
:100B780009200A128A11730883120313BF0072082E
:100B8800BE003E08AE003F08AF00B001B1012E081C
:100B9800BA072F0803110318013E0319D42DBB0708
:100BA800300803110318013E0319DB2DBC07310877
:100BB80003110318013E0319E22DBD072808F200AE
:100BC8002B080A128A1509200A128A11730883123F
:100BD8000313BF007208BE003E08AE003F08AF0016
:100BE800B001B1012E08BA072F0803110318013EFE
:100BF8000319FF2DBB07300803110318013E031921
:100C0800062EBC07310803110318013E03190D2EE7
:100C1800BD072808F2002C080A128A1509200A12B2
:100C28008A11730883120313BF007208BE003E08BE
:100C3800AE003F08AF00B001B10108300310AE0D9F
:100C4800AF0DB00DB10DFF3E031D222E2E08BA07C1
:100C58002F0803110318013E0319332EBB07300870
:100C680003110318013E03193A2EBC07310803117A
:100C78000318013E0319412EBD073408AE0035089C
:100C8800AF003608B0003708B10018300310B10CB7
:100C9800B00CAF0CAE0CFF3E031D4A2E2E08BA074F
:100CA8002F0803110318013E03195B2EBB073008F8
:100CB80003110318013E0319622EBC073108031102
:100CC8000318013E0319692EBD070830AE00031052
:100CD800B40DB50DB60DB70DAE0B6B2E3908380730
:100CE800AE00AF01AF0D2E08823EBE002F080318DC
:100CF800013EFF3EBF009D2E0130AE000310BA0D2D
:100D0800BB0DBC0DBD0DAE0B822EB71F8C2E8D2ECC
:100D18008E2E3A140130AE000310B40DB50DB60D89
:100D2800B70DAE0B902EFF30BE070318BF0AFF3079
:100D3800BF07BC1FA02EA12E802EB801B71FA52E5D
:100D4800A62EC22EFF303405AE00FF303505AF00A9
:100D5800FF303605B0007F303705B1003108300468
:100D68002F042E040319B92EBA2EBD2E0130B80057
:100D7800C22E3A1CC02EC12EC22EBA2E3808031914
:100D8800C62EC72EF82E0130BA07003003180130DE
:100D9800BB07003003180130BC07003003180130CE
:100DA800BD073D1CD82ED92EF82E3A08AE003B08B8
:100DB800AF003C08B0003D08B1000130B200310D71
:100DC800B10CB00CAF0CAE0CB20BE32E3108BD0069
:100DD8003008BC002F08BB002E08BA000130BE073F
:100DE8000318BF0A0030BF073F08803AFF00803071
:100DF8007F02031D012FFF303E02031C042F052F25
:100E0800102F7F3083120313BD008030BC000030E8
:100E1800BB000030BA00412F831203133F08803A09
:100E2800FF0080307F02031D1B2F01303E02031894
:100E38001E2F1F2F2B2F003083120313BD000030ED
:100E4800BC000030BB000030BA00B301412F831250
:100E580003133E08B900FF30BA05FF30BB057F30E9
:100E6800BC050030BD05391C3A2F3B2F3C2FBC1761
:100E78003908AE0003102E0CBD003308BD043D0830
:100E8800A9003C08A8003B08A7003A08A6000800EB
:100E98000030831203134805D00000304905D10003
:100EA80080304A05D2007F304B05D30053085204E6
:100EB80051045004031D612F622F6A2F0030CB00AC
:100EC8000030CA000030C9000030C80000304C05AE
:100ED800D00000304D05D10080304E05D2007F3063
:100EE8004F05D3005308520451045004031D7D2FAD
:100EF8007E2F862F0030CF000030CE000030CD008E
:100F08000030CC00CB1F892F8A2FAE2F0030D000A5
:100F18000030D1000030D2008030D3004808D00221
:100F28004908031C490F992F9A2FD1024A08031C1C
:100F38004A0F9F2FA02FD2024B08031C4B0FA52F3F
:100F4800A62FD3025308CB005208CA005108C90083
:100F58005008C800CF1FB12FB22FD62F0030D000B5
:100F68000030D1000030D2008030D3004C08D002CD
:100F78004D08031C4D0FC12FC22FD1024E08031C70
:100F88004E0FC72FC82FD2024F08031C4F0FCD2F6B
:100F9800CE2FD3025308CF005208CE005108CD00FF
:100FA8005008CC008030CB068030CF064F084B026B
:100FB800031DE82F4E084A02031DE82F4D08490279
:100FC800031DE82F4C0848020318EB2FEC2FEE2FD7
:100FD8000310EF2F03140800831603138801091167
:100FE80089100A168A1125260A128A110800013466
:100FF8000034113401340134FA308316031392009B
:101008008C14831203131211080083120313A40013
:10101800A001A1017208F400F5017408A200750886
:10102800A300241C182819281F282208A007031821
:10103800A10A2308A10701300310A20DA30DFF3E4A
:10104800031D20280310A40C2408031D2C282D2878
:1010580015282108F3002008F20008008312031362
:10106800A6012608803EA000FF300A168A11EB244C
:101078000A128A15033083120313A5008A30A400CC
:101088005530A300A30B4628A40B4628A50B4628D9
:10109800013083120313A60710302602031C5528BB
:1010A80056283528A630A0009030A100C130A200F3
:1010B8000A168A11A5250A128A15323083120313DB
:1010C800A0009030A1009130A2000A168A11A5252F
:1010D8000A128A1583120313A7012708D03EA0001D
:1010E800FF300A168A11EB240A128A15033083127C
:1010F8000313A5008A30A4005530A300A30B82284F
:10110800A40B8228A50B8228013083120313A7079A
:1011180010302702031C912892287128333083123B
:101128000313A500BB30A400DF30A300A30B9A284B
:10113800A40B9A28A50B9A280800031083120313FE
:10114800420D430DC9004908031DAB28AC28B5283A
:101158000030C3000030C2000030C1000030C000C1
:1011680016294008C4004108C5004208C6004308C3
:10117800C7001F300310C70CC60CC50CC40CFF3EBB
:10118800031DBE284408C800C217FF30C005FF3041
:10119800C105FF30C2050030C3059630C902C91F1A
:1011A800D628D728EF284908803A973E0318DD2823
:1011B800DE28DF28AC2801300310C30CC20CC10C98
:1011C800C00CFF3E031DE0280130C907031DED28B0
:1011D800EE28DF28062920304902031CF428F528C8
:1011E8000129AC280130C4000310C00DC10DC20D87
:1011F800C30DC40BF8280130C9024908031D05298D
:101208000629F628480803190A290B291629C009AE
:10121800C109C209C309C00A0319C10A0319C20ACC
:101228000319C30A080083120313A50022306E06AF
:10123800031D1F29202929290A168A11C7240A12E1
:101248008A15FF3083120313EE0037302506031D7D
:101258002E292F293F290A168A11C7240A128A150E
:10126800013083120313E80705306806031D3D2982
:101278003E293F29E8017F30A0009030A10080304E
:10128800A2000A168A11A5250A128A15C0308312EF
:101298000313A0002A300A168A11EB240A128A15B1
:1012A800831203136808A3002307B83E840083133E
:1012B8000008A000840A00088403A100C230A2002C
:1012C8000A168A11A5250A128A150530F20000307F
:1012D800F300831203136808013EF400003003187A
:1012E8000130F5000A168A117C260A128A1572083E
:1012F80083120313A3002307B83E84008313000856
:10130800A000840A00088403A1009230A2000A16F3
:101318008A11A5250A128A150530F2000030F3005B
:10132800831203136808023EF400003003180130EA
:10133800F5000A168A117C260A128A157208831289
:101348000313A3002307B83E840083130008A000FA
:10135800840A00088403A100D230A2000A168A1168
:10136800A5250A128A15080083120313A000200875
:101378000319BF29C029D429F51FC329C429D42991
:101388007209A2007309A3007409A4007509A500D5
:10139800A20A0319A30A0319A40A0319A50ADC2936
:1013A8007508A5007408A4007308A3007208A200B9
:1013B8007508740473047204031DE329E429ED29F4
:1013C8000030F5000030F4000030F3000030F20087
:1013D8006D2A9630A100FB290130A10701300310C6
:1013E800A50CA40CA30CA20CFF3E031DF329FE3090
:1013F8002505031D002A012AF0291B2A0130A1070F
:101408000130A207003003180130A3070030031889
:101418000130A407003003180130A507013003107C
:10142800A50CA40CA30CA20CFF3E031D132AFF302D
:101438002505031D202A212A022A2D2A0130A1026E
:101448000130F6000310A20DA30DA40DA50DF60B97
:10145800262AA41B302A312A372A023021020318EF
:10146800362A372A222A21183A2A3B2A432AFF30C9
:10147800A205FF30A3057F30A405FF30A5050310A2
:10148800A10C2108F600F701F801F9011830031042
:10149800F60DF70DF80DF90DFF3E031D4B2A7608E2
:1014A800A2047708A3047808A4047908A5042008EE
:1014B80003195F2A602A652AF51F632A642A652AA8
:1014C800A5172508F5002408F4002308F3002208CE
:1014D800F20008000A168A1100250A128A157130CE
:1014E80083120313A0009030A1008130A2000A16D5
:1014F8008A11A5250A128A15223083120313A00027
:101508009130A100C530A2000A168A11A5250A1239
:101518008A15523083120313A0009030A100913035
:10152800A2000A168A11A5250A128A1501300A1680
:101538008A1194270A128A152F3A031DA42AA52A6C
:101548009A2A0A168A11C7240A128A150A128A15B3
:1015580032200A128A1501300A168A1194270A12B3
:101568008A1583120313DD002C30DB000130DC0008
:101578000130DB020030031CDC03DC025B0A031DC4
:10158800C92A5C0A031DC92ACA2ABC2A99305D06E1
:10159800031DCF2AD02ADA2A6F03031DD42AD52A9D
:1015A800DA2A0230EF002230EE00522B99305D0625
:1015B800031DDF2AE02A152B02306F06031DE52ADA
:1015C800E62A152B0330EF000A168A11C7240A12DF
:1015D8008A15993083120313A0009030A10080303F
:1015E800A2000A168A11A5250A128A150630831246
:1015F8000313A0009130A100C030A2000A168A117E
:10160800A5250A128A15193083120313A0009130F8
:10161800A1009030A2000A168A11A5250A128A157F
:10162800522B2F305D06031D1A2B1B2B262B443003
:101638006F06031D202B212B262B0430EF001215DB
:101648000715522B522B5D080A128A1566230A12B7
:101658008A15AF2A5D080A128A1517210A128A15F7
:10166800AF2A2F305D06031D3A2B3B2B402B04304D
:10167800EF003330EE00AF2A1F305D06031D452B07
:10168800462B622B0130EF001130EE00AF2A5D08C7
:101698000A128A114B200A128A15AF2A83120313E1
:1016A8006F08013A0319272B033A03192E2B013A25
:1016B8000319352B073A03194B2BAF2AAF2A0A1205
:1016C8008A110C2883120313A50011306E06031D1E
:1016D8006E2B6F2B782B0A168A11C7240A128A15CB
:1016E800FF3083120313EE0037302506031D7D2BD0
:1016F8007E2B8E2B0A168A11C7240A128A150130EE
:1017080083120313E9070C306906031D8C2B8D2BFC
:101718008E2BE9014230A0009030A1008030A20059
:101728000A168A11A5250A128A15C03083120313D6
:10173800A0002A300A168A11EB240A128A150A30E8
:101748008312031369020318AA2BAB2BE92B690830
:10175800A3002307A03E840083130008A000840A86
:1017680000088403A100C130A2000A168A11A52529
:101778000A128A15831203136908A3002307A23EDD
:10178800840083130008A000840A00088403A100D1
:101798009130A2000A168A11A5250A128A15831209
:1017A80003136908A3002307A43E840083130008D9
:1017B800A000840A00088403A100D130A2000A1600
:1017C8008A11A5250A128A156A2C0A306906031D92
:1017D800EE2BEF2B2B2C6908A3002307A03E8400D7
:1017E80083130008A000840A00088403A100C13004
:1017F800A2000A168A11A5250A128A158312031354
:101808006908A3002307A23E840083130008A000F0
:10181800840A00088403A1009130A2000A168A11E4
:10182800A5250A128A1583160313200883120313A9
:10183800A00083160313210883120313A100D130DB
:10184800A2000A168A11A5250A128A156A2C0B30DD
:101858006906031D302C312C6A2C6908A300230764
:10186800A03E840083130008A000840A00088403B3
:10187800A100C130A2000A168A11A5250A128A15EC
:1018880083160313200883120313A000831603137F
:10189800210883120313A1009130A2000A168A11AD
:1018A800A5250A128A158316031322088312031327
:1018B800A00083160313230883120313A100D13059
:1018C800A2000A168A11A5250A128A150800872D72
:1018D800EA012130EB00AF2DEA012930EB00AF2DF2
:1018E800EA012D30EB00AF2D6808003A0319702C7F
:1018F800013A03196C2C033A0319702C013A0319A5
:10190800742C073A0319742CAF2DEA012B30EB0025
:10191800AF2DEA013230EB00AF2DEA013930EB0090
:10192800AF2D6808003A03198D2C013A0319892C48
:10193800033A03198D2C013A0319912C073A03191C
:10194800912CAF2DEA011A30EB00AF2DEA011F30C0
:10195800EB00AF2D6808003A0319A62C013A0319C9
:10196800A62C033A0319A62C013A0319AA2C073A04
:101978000319AA2CAF2D0130EA001030EB00AF2D6F
:101988006808003A0319BF2C013A0319BF2C033A1F
:101998000319BF2C013A0319BF2C073A0319BF2CAE
:1019A800AF2D0130EA002430EB00AF2D6808003A73
:1019B8000319D52C013A0319D52C033A0319D52C50
:1019C800013A0319D52C073A0319D52CAF2DEA0192
:1019D8001030EB00AF2D6808003A0319AA2C013A21
:1019E8000319AA2C033A0319AA2C013A0319EB2C60
:1019F800073A0319EB2CAF2DEA011D30EB00AF2D90
:101A08006808003A0319002D013A0319002D033A1A
:101A18000319002D013A0319002D073A0319002D67
:101A2800AF2DEA012E30EB00AF2DEA013530EB0087
:101A3800AF2D0130EA00EB01AF2D6808003A031919
:101A4800192D013A0319152D033A0319192D013AD5
:101A580003191D2D073A03191D2DAF2DEA01123068
:101A6800EB00AF2DEA011430EB00AF2D6808003A07
:101A78000319362D013A0319322D033A0319362D6D
:101A8800013A0319362D073A0319362DAF2DEA010D
:101A98000630EB00AF2D6808003A03194B2D013AC8
:101AA80003194B2D033A03194B2D013A03194B2DFA
:101AB800073A03194B2DAF2DEA011530EB00AF2D76
:101AC8006808003A0319602D013A0319EB2C033A10
:101AD8000319602D013A0319A62C073A0319A62CFD
:101AE800AF2D8D2C6808003A03198D2C013A031983
:101AF800752D033A03198D2C013A03198D2C073AD9
:101B080003198D2CAF2D831203136908003A0319AA
:101B1800782C013A0319952C033A0319AE2C013A93
:101B28000319C42C073A0319DA2C013A0319EF2CCC
:101B3800033A0319042D013A0319212D0F3A031909
:101B48003A2D013A03194F2D033A0319642D013A2E
:101B58000319762DAF2D0800750883120313A8000A
:101B68008030A8057508A0002007AA00F41FBD2D25
:101B7800BE2DBF2D2A142A080319C32DC42DD42D18
:101B88002A0A031DC82DC92DD12D0030F5000030BB
:101B9800F4000030F3000030F200F417F501DC2DFA
:101BA8000030F5000030F4000030F3000030F2009F
:101BB8007908A9008030A905290828060319E52D08
:101BC800E62DE72D28177908A0002007A900F81F9F
:101BD800EE2DEF2DF02D291429080319F42DF52DDC
:101BE800052E290A031DF92DFA2D022E0030F900C1
:101BF8000030F8000030F7000030F600F817F9015F
:101C08000D2E0030F9000030F8000030F7000030E9
:101C1800F6002A0829020318122E132E372E281F21
:101C2800162E172E192E8030A8062A08AB00290870
:101C3800AA002B08A9007208AB007608F2002B084E
:101C4800F6007308AB007708F3002B08F700740858
:101C5800AB007808F4002B08F8007508AB00790889
:101C6800F5002B08F900AB012908A000A101210803
:101C7800A3002A082002A200031CA3032308803A19
:101C8800FF0080307F02031D4B2E1A302202031CF6
:101C98004E2E4F2E842E7508740473047204031D8F
:101CA800562E582E0130592E003083120313AB00E4
:101CB8000030F5000030F4000030F3000030F2008E
:101CC8002908AA008C2E2B1C6A2E6B2E722E2B082C
:101CD800A0000310200C0138AB00742E0310AB0CCD
:101CE800721C772E782E792EAB170130A000750D57
:101CF800F50CF40CF30CF20CA00B7B2E0130AA07A8
:101D08008312031329082A02031C8B2E8C2E672E9C
:101D1800281B8F2E902ED72E2A08031D942E952E21
:101D28009E2E0030F5000030F4000030F300003043
:101D3800F200FF2F7608F207770803110318013E17
:101D48000319A72EF307780803110318013E031996
:101D5800AE2EF407790803110318013E0319B52EB6
:101D6800F507751CB82EB92E8B2F2B1CBC2EBD2E3B
:101D7800C42E2B08A0000310200C0138AB00C62E7F
:101D88000310AB0C721CC92ECA2ECB2EAB17013018
:101D9800A000750DF50CF40CF30CF20CA00BCD2E75
:101DA8000130AA078B2F7508803AFF007908803A1E
:101DB8007F02031DE92E78087402031DE92E7708B7
:101DC8007302031DE92E760872020318EC2EED2E1D
:101DD800442FFF30A000FF30A100FF30A200FF30E9
:101DE800A3007608A4007708A5007808A60079085B
:101DF800A7007208A4027308031C730F042F052F91
:101E0800A5027408031C740F0A2F0B2FA60275086D
:101E1800031C750F102F112FA7022408A0072508EF
:101E28000318250F182F192FA10726080318260FA6
:101E38001E2F1F2FA20727080318270AA307230806
:101E4800F5002208F4002108F3002008F200803091
:101E5800A8062B03FF3AAB002B08031D342F352FA0
:101E6800522F0130F207003003180130F307003019
:101E780003180130F407003003180130F507522F1A
:101E88007608F2027708031C770FF3027808031C20
:101E9800780FF4027908031C790FF50275087404A9
:101EA80073047204031D592F5A2F872F2B08031D03
:101EB8005E2F5F2F872F0030F5000030F4000030D0
:101EC800F3000030F200FF2F0130A0000310F20DE4
:101ED800F30DF40DF50DA00B6A2FAB1F742F752FA2
:101EE800762F72142B1C792F7A2F7E2F03142B0D2B
:101EF800AB00802F0310AB0D2A080319842F852F00
:101F0800872F0130AA02F41F8A2F8B2F682FA9016F
:101F1800AB1F8F2F902F9E2F2B087F390319952FDA
:101F2800962F992F0130A9009E2F721C9C2F9D2F50
:101F38009E2F962F29080319A22FA32FD52F0130E2
:101F4800F207003003180130F3070030031801309E
:101F5800F407003003180130F507751CB42FB52FAE
:101F6800D52F7208A0007308A1007408A200750894
:101F7800A3000130A400230DA30CA20CA10CA00CFB
:101F8800A40BBF2F2308F5002208F4002108F30052
:101F98002008F2002A0A0319D22FD32FD52F013097
:101FA800AA072A0A0319D92FDA2FDF2F2A08031DB7
:101FB800DE2FDF2FED2F0030F5000030F400003069
:101FC800F3000030F2002A08031DEB2FEC2FED2F51
:101FD800A8012A1CF02FF12FF32FF417F52F7F30CB
:101FE800F4052A08A0000310200CF500A81FFD2FF7
:101FF800FE2FFF2FF517080050346C346534613418
:1020080073346534203463346C346F34733465341A
:10201800203464346F346F34723400345034723482
:1020280067346D34203443346F346D3470346C3419
:1020380065347434653464342034003435343A34C7
:1020480053345434413452345434203436343A34CA
:1020580050344134553453344534003457346134A2
:102068007334683469346E34673420346D346134C1
:102078006334683469346E346534003457346134F9
:102088007334683469346E346734203450347234AD
:102098006F346734723461346D34003457346134CA
:1020A8007334683469346E34673420344D346134A1
:1020B8006334683469346E346534003452346534BA
:1020C8006D346F3476346534203443346C346F3473
:1020D800743468346534733400345034723465347D
:1020E8007334733420344B346534793435342034C4
:1020F80074346F34003457344134543445345234D2
:102108005F344C344534563445344C343A34003416
:1021180044346F346F347234203469347334203467
:102128006F34703465346E3400345034723465342E
:1021380073347334203453347734693474346334E7
:102148006834003450346F34773465347234693409
:102158006E34673420346F346E3400344134713453
:10216800753461342034733474346F3472346534A4
:10217800003453347434613469346E342034773421
:102188006134733468340034453463346F346334F1
:102198006F34743474346F346E34733400344234AE
:1021A8006534643420347334683465346534743485
:1021B80073340034463475346E346334743469349B
:1021C8006F346E343A340034443465346C346934D2
:1021D800633461347434653473340034573461348F
:1021E8007334683420346F346E346C34793400348A
:1021F800523469346E34733465342B344434723455
:10220800793400345334573435343A3453345434ED
:1022180041345234543400344434723479342034E0
:102228006F346E346C347934003453345734363464
:102238003A34533454344F345034003450346F34B7
:1022480077346534723420344F346E340034573464
:102258006F346F346C3465346E34733400344D34F9
:1022680065346434693475346D34003457346834F3
:1022780069347434653473340034533470346934D5
:102288006E3420340034543469346D3465343A344F
:102298000034503472346F3467343A340034523472
:1022A80069346E34733465340034443461346934C9
:1022B8006C34793400344834653461347634793494
:1022C800003448346934673468340034573461342E
:1022D8007334683400345334703469346E340034E1
:1022E8004134753474346F3400344C346F3477347B
:1022F80000344D34613478340034FF1B8B29831348
:102308007F1883170008840A0319FF0A08007F084A
:0E2318007F398A000408840A0319FF0A820034
:102982008316031306083F3886000800F20101305F
:102992000A168A111A250A168A110430F7003D30E8
:1029A200F600F60BD22CF70BD22CD72C08007E089F
:1029B2008A007F0882000A168A11D8240A168A1110
:1029C2008000840A04087D0603190034FF0A0319F3
:1029D200FE0ADC2C83120313A100F20120080A165E
:1029E2008A111A250A168A11F201F20A83120313B6
:1029F20021080A168A111A250A168A1108000A12D3
:102A02008A11F0270A168A110A168A11C1240A1697
:102A12008A110A128A1500200A168A118B170B17BF
:102A220083160313871007118312031387100711EC
:102A32000800F50072181E2D222D831203130915AA
:102A4200252D831203130911750888008914A630F5
:102A5200F300F30B2A2D00008312031389101B309D
:102A6200F4009E30F300F30B342DF40B342D0000F0
:102A72000800593491345F349134E83490343A3454
:102A82009134BD349034C83490342B349134D334DF
:102A92009034FC34903410349134F2349034B234A3
:102AA20090347434913479349134333491346534BC
:102AB20091347D349134803083120313C306470866
:102AC200F5004608F4004508F3004408F200430804
:102AD200F9004208F8004108F7004008F6000A121F
:102AE2008A15B0250A168A11750883120313C300CA
:102AF2007408C2007308C1007208C0000800F60121
:102B0200F701721C852D862D8C2D7408F60703188B
:102B1200F70A7508F70701300310F40DF50DFF3EB3
:102B2200031D8D2D01300310F30CF20CFF3E031D2B
:102B3200942D72087304031D9F2DA02D822D7708FA
:102B4200F3007608F2000800F20183120313220850
:102B52000A168A111A250A168A11C72DF201F20ADB
:102B62002108FF00200884000A168A1181210A1612
:102B72008A110A168A111A250A168A11013083123D
:102B82000313A0070318A10A0030A107831203133D
:102B92002108FF00200884000A168A1181210A16E2
:102BA2008A11003A031DD62DD72DAF2D08008312AE
:102BB20003138C1CDD2DDE2D1E2E01308316031314
:102BC200C207003003180130C30700300318013078
:102BD200C407003003180130C507203042064E30CA
:102BE2000319430644044504031DF82DF92D1B2E39
:102BF200831203136B080319FF2D002E032E0130DD
:102C0200EB02112E6B08031D072E082E112E6A08E7
:102C120003190C2E0D2E112E0130EA023C30EB006E
:102C2200003083160313C5000030C4000030C30017
:102C32000030C200831203138C1071088A00700ED8
:102C42008300FE0E7E0E0900C330F700CD30F60081
:102C5200F60B292EF70B292EF20133300A168A11B0
:102C62001A250A168A111B30F7009E30F600F60B61
:102C7200382EF70B382E0000F20133300A168A1173
:102C82001A250A168A11A630F600F60B462E000007
:102C9200F20133300A168A111A250A168A11512EA8
:102CA200522E0000F2013C300A168A111A250A1629
:102CB2008A11A630F600F60B5C2E0000F2010130FC
:102CC2000A168A111A250A168A110430F7003D30B5
:102CD200F600F60B6A2EF70B6A2E6F2EF2010C30FD
:102CE2000A168A111A250A168A11A630F600F60B60
:102CF200782E00000800F701F51F802E812E882E05
:102D0200F409F509F40A0319F50A0130F700F31F73
:102D12008B2E8C2E912EF209F309F20A0319F30A73
:102D2200720873040319962E972EC42E0130F600F2
:102D3200A32E01300310F20DF30DFF3E031D9B2E57
:102D42000130F607F31FA62EA72E9A2E73087502DE
:102D5200031DAD2E72087402031CB02EB12EB72EC5
:102D62007208F4027308031CF503F5020130031024
:102D7200F30CF20CFF3E031DB82E0130F602031DC8
:102D8200C32EC42EA72E77080319C82EC92ECE2E05
:102D9200F409F509F40A0319F50A7508F300740831
:102DA200F2000800831203130618D82ED92E302FF2
:102DB2000711121187140A168A11C7240A168A11DA
:102DC2008C3083120313A0009030A1008030A20047
:102DD2000A168A11A5250A168A11003083120313D6
:102DE200A0009030A100C030A2000A168A11A525C9
:102DF2000A168A1183120313061C002F012FFB2EC1
:102E02000715121587100A168A11C7240A168A1185
:102E1200DE3083120313A0009030A1008030A200A4
:102E22000A168A11A5250A168A114730831203133E
:102E3200A0009130A100C030A2000A168A11A52577
:102E42000A168A11223083120313A0009030A100C7
:102E52009030A2000A168A11A5250A168A110800C6
:102E6200F701F31F352F362F3D2FF209F309F20A2E
:102E72000319F30A0130F700F51F402F412F482FA5
:102E8200F409F509F40A0319F50A0130F706F80105
:102E9200F9017208730403194F2F502F852F013047
:102EA200F6005C2F01300310F20DF30DFF3E031DFF
:102EB200542F0130F607F31F5F2F602F532F01307D
:102EC2000310F80DF90DFF3E031D612F7308750203
:102ED200031D6D2F72087402031C702F712F782F3F
:102EE2007208F4027308031CF503F502781401302A
:102EF2000310F30CF20CFF3E031D792F0130F60292
:102F0200031D842F852F602F77080319892F8A2F9D
:102F12008F2FF809F909F80A0319F90A7908F30059
:102F22007808F2000800831203130608F2003F300B
:102F3200F2053F30720603199F2FA02FAB2F7B089B
:102F42000319A42FA52FAB2FFB01EC01ED01720891
:102F5200FA00FE2F3F307206031DB02FB12FC72F8C
:102F62007B08031DB52FB62FC72F0130FB006D085C
:102F7200803AFF0080307F02031DC12F1E306C0299
:102F82000318C42FC52FFE2F7A08FF2F7B08031DBD
:102F9200CB2FCC2FE22F6D08803AFF0080307F02CA
:102FA200031DD52F1F306C020318D82FD92FE22F03
:102FB200013083120313EC070318ED0A0030ED070A
:102FC200FE2F7B08031DE62FE72FFE2F1F308312F3
:102FD20003136C066D04031DEF2FF02FFE2F373005
:102FE2007206031DF52FF62FFE2F0130EC07031892
:0E2FF200ED0A0030ED079930FF2F3F30080048
:02400E00FB3F76
:00000001FF
